S01100002E2E2F50726F746575732E73313966
S32D0000C000000000205DC2000011C3000017C300001DC3000023C3000029C3000000000000000000000000000073
S32D0000C028000000002FC3000035C30000000000003BC3000041C30000F1C90000FDC9000009CA000015CA0000CC
S32D0000C05021CA00002DCA000039CA000045CA000051CA00005DCA000069CA000075CA000081CA00008DCA000078
S32D0000C07899CA0000A5CA0000B1CA0000BDCA0000C9CA0000D5CA0000E1CA0000EDCA0000F9CA000005CB00009F
S32D0000C0A011CB00001DCB000029CB000035CB000041CB00004DCB000059CB000065CB000071CB00007DCB0000BE
S32D0000C0C889CB000095CB0000A1CB0000ADCB0000B9CB0000C5CB0000D1CB0000DDCB0000E9CB0000F5CB0000E6
S32D0000C0F001CC0000591001000DCC000019CC000025CC000031CC00003DCC000049CC000055CC000061CC0000D3
S32D0000C1186DCC000079CC000085CC000091CC00009DCC0000A9CC0000B5CC0000C1CC0000CDCC0000D9CC0000A3
S32D0000C140E5CC0000F1CC0000FDCC000009CD000065F6000015CD000021CD00002DCD000039CD000045CD000087
S32D0000C16851CD00005DCD000069CD000075CD000081CD00008DCD000099CD0000A5CD0000B1CD0000BDCD000061
S32D0000C190C9CD0000D5CD0000E1CD00007DF3000045F20000E1F2000075C700001DF40000EDCD0000F9CD000054
S32D0000C1B805CE0000002B020000000020D8160000002B02000000FF1F00000000D81600207C0400000000FF1F54
S32D0000C1E00000000080B489B000AFF860B9607A60BB68FB61FB68BB6100237B617A697B689A420BD2BA69131DFB
S32D0000C208BB61FB69191DF96112681A607B6904337B61EFE700BF2437BD4680BC704780B485B000AF786039609E
S32D0000C2307B68FB600023BB60BA683B689A4208D2FB681A1DFA6000221A60BB680433BB60F2E700BF1437BD46FE
S32D0000C25880BC704780B586B000AF72B6234B4CF220521A80214B4DF628121A80204B4FF4E9721A801F4B7B615F
S32D0000C2807B691F4A934214D27B691A1D7A611B683B617B691A1D7A611B68FB607B691A1D7A611B68BB60BA68E9
S32D0000C2A8F9683869FFF79AFFE6E77B69134A93420ED27B691A1D7A611B68FB607B691A1D7A611B68BB60B9688B
S32D0000C2D0F868FFF7A8FFECE70B4B7B600B4A7B681A600EF079FA62B600F00CFB00F0C8F8FEE700BF0E20054046
S32D0000C2F800200540BCC10000D4C10000E4C1000008ED00E000C0000080B400AFFEE780B400AFFEE780B400AFF4
S32D0000C320FEE780B400AFFEE780B400AFFEE780B400AFFEE780B400AFFEE780B400AFFEE780B400AFFEE780B426
S32D0000C34800AFFEE7FFFFFFFFFFFFFFFFFFFFFFFFFFFFFFFFFFFFFFFFFFFFFFFFFFFFFFFFFFFFFFFFFFFFFFFF57
S32D0000C370FFFFFFFFFFFFFFFFFFFFFFFFFFFFFFFFFFFFFFFFFFFFFFFFFFFFFFFFFFFFFFFFFFFFFFFFFFFFFFFFC7
S32D0000C398FFFFFFFFFFFFFFFFFFFFFFFFFFFFFFFFFFFFFFFFFFFFFFFFFFFFFFFFFFFFFFFFFFFFFFFFFFFFFFFF9F
S32D0000C3C0FFFFFFFFFFFFFFFFFFFFFFFFFFFFFFFFFFFFFFFFFFFFFFFFFFFFFFFFFFFFFFFFFFFFFFFFFFFFFFFF77
S32D0000C3E8FFFFFFFFFFFFFFFFFFFFFFFFFFFFFFFFFFFFFFFFFFFFFFFFFFFFFFFFFFFFFFFFFFFFFFFFFEFFFFFF50
S32D0000C44010B5054C237833B9044B13B10448AFF300800123237010BDD8160020000000007029020008B5034B78
S32D0000C4681BB103490348AFF3008008BD00000000DC1600207029020080B500AF114A1921114800F007F9104895
S32D0000C49000F0CBF84FF000000E4902F0D7FB19210B4800F0D4F80C4802F0D2FC0346002B0CBF01230023DBB201
S32D0000C4B8002B00D0F3E7044800F0B3F80023184680BD00BF0000C041F41600200000F03F0817002080B584B01B
S32D0000C4E002AF786039607B68012B15D13B684FF6FF72934210D10F230093172303220021074800F01DF8074A1E
S32D0000C5080749054804F046FF1F21064802F0C0FB00BF0837BD4680BDF416002000000020D9C50000081700208F
S32D0000C53080B500AF4FF6FF710120FFF7CFFF80BD90B583B000AF7860084611461A460346FB700B46BB70134695
S32D0000C5587B707B681D4A1A60082004F023FF03461C467B681A68FB781946204600F04CFC7B685C60082004F08D
S32D0000C58015FF03461C467B681A68BB781946204600F03EFC7B689C60012004F007FF03461C467B7819462046EA
S32D0000C5A802F0D6FC7B68DC60012004F0FBFE03461C463B7E1946204602F0CAFC7B681C617B6818460C37BD46AC
S32D0000C5D090BD00BF0000104180B582B000AF78607B685B68002B03D00821184604F0DCFE7B689B68002B03D015
S32D0000C5F80821184604F0D4FE7B68DB68002B03D00121184604F0CCFE7B681B69002B03D00121184604F0C4FECB
S32D0000C6207B6818460837BD4680BD80B582B000AF78607B689B68184600F028FC7B685B68184600F023FC00BF14
S32D0000C6480837BD4680BD90B583B000AF786039607B681B69184602F03BFF7B68DB68184602F036FF7B689C682A
S32D0000C67038680CF0C5FC03461946204600F048FC7B685C6838680CF0BBFC03461946204600F03EFC00BF0C37C9
S32D0000C698BD4690BDF0B587B000AFF860B9607A60FB681B69184602F013FFFB68DB68184602F00EFF2C497868AD
S32D0000C6C00CF0F2FC03467B61FB689C68BB685B4218460CF095FC03461946204600F018FCFB685C68BB685B4232
S32D0000C6E818460CF089FC03461946204600F00CFCFB68DB68184602F0D9FE0446FB681B69184602F0D3FE0346D7
S32D0000C710234418460CF01EF84FF000024FF080430CF0ACF902460B4614461D4678690CF023F802460B46012137
S32D0000C7380E46204629460CF0E5FA0346002B01D100231E46F3B2002B00D0D1E7FB689B68184600F097FBFB6801
S32D0000C7605B68184600F092FB00BF1C37BD46F0BDC13AA64180B500AF0F4BD3F8A03003F48053002B14BF0123A4
S32D0000C7880023DBB2002B10D0094BD3F8A030084A23F48053C2F8A030064804F089FD064B1B68054A23F40053BE
S32D0000C7B0136000BF80BD00BF00C00440701A0020C0F00F4080B400AF124B4FF480725A63114B5B69104A43F49D
S32D0000C7D8005353610E4B1B680D4A43F4005313600A4B0C4A1A630C4BD3F888310A4A43F08063C2F88831084BC9
S32D0000C8009B68074A43F08063936000BFBD4680BC704700BF00C00440C0F00F4003010A0000E100E080B400AF84
S32D0000C828334B00225A70324B98221A70304B9B79DBB203F01003002B14BF01230023DBB2002B00D0F2E72A4B7A
S32D0000C8509B79DBB29B08DBB203F00303022B14BF01230023DBB2002B00D0F0E7224B18221A71214B00225A71BF
S32D0000C878204B03F580531A461F4B53641C4B54225A711B4B9B79DBB203F02003002B0CBF01230023DBB2002B21
S32D0000C8A000D0F2E7144B9B79DBB203F04003002B0CBF01230023DBB2002B00D0F2E70E4B1B78DBB20C4A03F02B
S32D0000C8C83F03DBB213700A4B9B79DBB29B08DBB203F00303032B14BF01230023DBB2002B00D0F0E700231846A9
S32D0000C8F0BD4680BC704700BF00400640007004400000130180B500AF314B03F580539B6B2F4A43F4785302F574
S32D0000C91880529363FFF752FFFFF780FF2B4B58221A602A4B1B684FF47A7202FB03F3284A1360274B1B681A46AF
S32D0000C940234B03F580535B6C1B0E03F00F030133B2FBF3F31A46214B1A601D4B03F58053DB6B1B4A43F0225308
S32D0000C96802F58052D363184B03F580531B6B164A43F0006302F580521363174B4FF480721A61642002F034F805
S32D0000C990134B5B69124A23F010035361104B00221A600F4B10225A610E4803F039FA02F00DFE02F06BFE0C48BB
S32D0000C9B802F080F80B4804F0CFFC4FF4FA6002F02BF900BF80BD00BF007004403419002030190020381900206C
S32D0000C9E000D00340E81900202C190020E01A002080B500AFFFF7A7FC00BF80BD80B500AFFFF7A1FC00BF80BD8A
S32D0000CA0880B500AFFFF79BFC00BF80BD80B500AFFFF795FC00BF80BD80B500AFFFF78FFC00BF80BD80B500AFE7
S32D0000CA30FFF789FC00BF80BD80B500AFFFF783FC00BF80BD80B500AFFFF77DFC00BF80BD80B500AFFFF777FC70
S32D0000CA5800BF80BD80B500AFFFF771FC00BF80BD80B500AFFFF76BFC00BF80BD80B500AFFFF765FC00BF80BDFD
S32D0000CA8080B500AFFFF75FFC00BF80BD80B500AFFFF759FC00BF80BD80B500AFFFF753FC00BF80BD80B500AF23
S32D0000CAA8FFF74DFC00BF80BD80B500AFFFF747FC00BF80BD80B500AFFFF741FC00BF80BD80B500AFFFF73BFCE8
S32D0000CAD000BF80BD80B500AFFFF735FC00BF80BD80B500AFFFF72FFC00BF80BD80B500AFFFF729FC00BF80BD39
S32D0000CAF880B500AFFFF723FC00BF80BD80B500AFFFF71DFC00BF80BD80B500AFFFF717FC00BF80BD80B500AF5F
S32D0000CB20FFF711FC00BF80BD80B500AFFFF70BFC00BF80BD80B500AFFFF705FC00BF80BD80B500AFFFF7FFFB60
S32D0000CB4800BF80BD80B500AFFFF7F9FB00BF80BD80B500AFFFF7F3FB00BF80BD80B500AFFFF7EDFB00BF80BD77
S32D0000CB7080B500AFFFF7E7FB00BF80BD80B500AFFFF7E1FB00BF80BD80B500AFFFF7DBFB00BF80BD80B500AF9D
S32D0000CB98FFF7D5FB00BF80BD80B500AFFFF7CFFB00BF80BD80B500AFFFF7C9FB00BF80BD80B500AFFFF7C3FBDB
S32D0000CBC000BF80BD80B500AFFFF7BDFB00BF80BD80B500AFFFF7B7FB00BF80BD80B500AFFFF7B1FB00BF80BDB3
S32D0000CBE880B500AFFFF7ABFB00BF80BD80B500AFFFF7A5FB00BF80BD80B500AFFFF79FFB00BF80BD80B500AFD9
S32D0000CC10FFF799FB00BF80BD80B500AFFFF793FB00BF80BD80B500AFFFF78DFB00BF80BD80B500AFFFF787FB52
S32D0000CC3800BF80BD80B500AFFFF781FB00BF80BD80B500AFFFF77BFB00BF80BD80B500AFFFF775FB00BF80BDEE
S32D0000CC6080B500AFFFF76FFB00BF80BD80B500AFFFF769FB00BF80BD80B500AFFFF763FB00BF80BD80B500AF14
S32D0000CC88FFF75DFB00BF80BD80B500AFFFF757FB00BF80BD80B500AFFFF751FB00BF80BD80B500AFFFF74BFBCA
S32D0000CCB000BF80BD80B500AFFFF745FB00BF80BD80B500AFFFF73FFB00BF80BD80B500AFFFF739FB00BF80BD2A
S32D0000CCD880B500AFFFF733FB00BF80BD80B500AFFFF72DFB00BF80BD80B500AFFFF727FB00BF80BD80B500AF50
S32D0000CD00FFF721FB00BF80BD80B500AFFFF71BFB00BF80BD80B500AFFFF715FB00BF80BD80B500AFFFF70FFB41
S32D0000CD2800BF80BD80B500AFFFF709FB00BF80BD80B500AFFFF703FB00BF80BD80B500AFFFF7FDFA00BF80BD66
S32D0000CD5080B500AFFFF7F7FA00BF80BD80B500AFFFF7F1FA00BF80BD80B500AFFFF7EBFA00BF80BD80B500AF8E
S32D0000CD78FFF7E5FA00BF80BD80B500AFFFF7DFFA00BF80BD80B500AFFFF7D9FA00BF80BD80B500AFFFF7D3FABD
S32D0000CDA000BF80BD80B500AFFFF7CDFA00BF80BD80B500AFFFF7C7FA00BF80BD80B500AFFFF7C1FA00BF80BDA4
S32D0000CDC880B500AFFFF7BBFA00BF80BD80B500AFFFF7B5FA00BF80BD80B500AFFFF7AFFA00BF80BD80B500AFCA
S32D0000CDF0FFF7A9FA00BF80BD80B500AFFFF7A3FA00BF80BD80B500AFFFF79DFA00BF80BD80B584B000AFF86030
S32D0000CE180B467A60FB72FB68FA7A1A71FB6800225A71174978680CF0F7FA0346002B02D0134B7B600AE04FF0CD
S32D0000CE407E5178680CF0D8FA0346002B02D04FF07E537B6078680BF08FFC09A3D3E900230BF0E2FC02460B46B3
S32D0000CE68104619460BF0BEFF0246FB681A60FB6818461037BD4680BDABAAAAAAAAAA20400000404180B582B07D
S32D0000CE9000AF78607B685B79002B09D07B6800225A717B6819791E230022034801F040FE00BF0837BD4680BDD2
S32D0000CEB82C19002080B584B000AF786039603B687F2B02DD7F23FB7308E03B6813F1800F02DA8023FB7301E036
S32D0000CEE03B68FB737B685B79FA7B9A4209D07B68FA7B5A717B681979FA7B1E23034801F017FE00BF1037BD468A
S32D0000CF0880BD00BF2C190020B0B584B000AF78603960374938680CF061FA0346002B02D0334B3B6008E03349A7
S32D0000CF3038680CF075FA0346002B01D02F4B3B6038680BF019FC04460D467B681B6818460BF012FC4FF0000213
S32D0000CF58294B0BF08FFD02460B46204629460BF05FFC02460B46104619460BF03BFF03463B604FF000013868A5
S32D0000CF800CF044FA0346002B10D038680BF0F4FB17A3D3E900230BF047FC02460B46104619460BF0DBFE034629
S32D0000CFA8FB6018E038680BF0E3FB4FF00002134B0BF036FC02460B46104619464FF000020D4B0BF057FD024645
S32D0000CFD00B46104619460BF0C1FE0346FB60F9687868FFF76BFF00BF1037BD46B0BD00BF52B81E85EB51F43FDD
S32D0000CFF80000C8C20000C842000059400000604080B483B000AF03460A46FB711346BB71BB79002B03D1134B0D
S32D0000D02000221A7002E0114B01221A703823FB710E4B1A78FB791343FB710D4B9B78DBB20B4A43F01003DBB243
S32D0000D0489370094B9B78DBB2074A43F02003DBB29370054AFB79137100BF0C37BD4680BC704700BF091700204E
S32D0000D0700060064080B483B000AF01237B607B68312B04DC00BF7B6801337B60F7E700BF0C37BD4680BC704731
S32D0000D09880B582B000AF03460A46FB711346BB71134B1B7800211846FFF7AAFF00F024F8104AFB79137100F06D
S32D0000D0C01FF80E4ABB79137100F01AF80B4B9B78DBB20A4A23F02003DBB29370074B9B78DBB2064A23F01003A1
S32D0000D0E8DBB29370FFF7C2FF00BF0837BD4680BD0A1700200060064080B483B000AF174B1B78002B24D1002360
S32D0000D1107B60154BDB78DBB203F00203002B0CBF01230023DBB2002B0DD07B6842F21072934203DD0B4B012245
S32D0000D1381A7004E07B6801337B6000BFE5E7084BDB78DBB2064A43F00203DBB2D37000E000BF0C37BD4680BC32
S32D0000D160704700BF0B1700200060064080B582B000AF0346FB71FB79184600F03BF800BF0837BD4680BD80B510
S32D0000D18882B000AF03460A46FB711346BB7100F011F8FB795B00DBB21846FFF7E3FFBB791846FFF7DFFF00F02D
S32D0000D1B013F800BF0837BD4680BD000080B400AF044B9B68034A43F48013936000BFBD4680BC704740F00F4095
S32D0000D1D880B400AF044B5B68034A43F48013536000BFBD4680BC704740F00F4080B485B000AF0346FB71002346
S32D0000D200BB73164BDB6A03F00043012B0CBF01230023DBB2002B03D0FB7B0133FB73F0E70E4BDB6A0D4A43F016
S32D0000D2280043D3620B4AFB7953630A4BDB6A03F40033002B0CBF01230023DBB2002B00D0F3E7044B9B6BBB73FB
S32D0000D250BB7B18461437BD4680BC704700C00A4080B582B000AF204B03F580531B6B1E4A43F4805302F58052C4
S32D0000D27813631C4B4FF480721A651B4B5B691A4A43F480135361FFF7A3FF164B4FF400725A65144B4FF400726A
S32D0000D2A09A65124B4FF40072DA65124B124A1A60104B124ADA6000237B607B68092B06DCFF20FFF753FF7B68AB
S32D0000D2C801337B60F5E704A1D1E9000101F0BAFC00BF0837BD4680BD9A9999999999B93F0070044000A00440E1
S32D0000D2F040F00F4000C00A40000C00800500003E90B486B000AFF860B9607A60FB68534A93420AD1524B03F5FF
S32D0000D31880535B6B504A43F4806302F58052536345E0FB684D4A93420AD14B4B03F580535B6B494A43F40063F8
S32D0000D34002F58052536336E0FB68474A93420AD1434B03F580535B6B414A43F4805302F58052536327E0FB68E9
S32D0000D368404A93420AD13C4B03F580535B6B3A4A43F4005302F58052536318E0FB683A4A93420AD1344B03F5B2
S32D0000D39080539B6A324A43F4806302F58052936209E02F4B03F580539B6A2D4A43F4006302F580529362FB68DE
S32D0000D3B8DB78DBB223F00C03DAB2FB68DA70FB6800229A70BB684FF47A7203FB02F27B681B0192FBF3F39CB279
S32D0000D3E0FB681B78DBB223F01F03FB75230A9BB2DBB203F01F03DAB2FB7D1343DAB2FB681A70E2B2FB685A7047
S32D0000D408BB684FF4FA4203FB02F27B681B0192FBF3F39AB263019BB2D31A9CB2FB689B7ADBB223F01F03FB750E
S32D0000D430E3B203F01F03DAB2FB7D1343DAB2FB689A72FB68DB78DBB243F00C03DAB2FB68DA7000BF1837BD4600
S32D0000D45890BC704700A006400070044000B0064000C0064000D0064000A00E4080B483B000AF78607B681B79A4
S32D0000D480DBB203F02003002B0CBF01230023DBB2002B00D0F2E77B68DB79DBB218460C37BD4680BC704780B4AE
S32D0000D4A883B000AF78600B46FB707B681B79DBB25BB2DB43DBB2DB09DBB2002B00D0F4E77B68FA78DA7100BF7E
S32D0000D4D00C37BD4680BC704780B487B000AFF860B9607A60FB687B617B685A1E7A60002B14BF01230023DBB24A
S32D0000D4F8002B06D07B695A1C7A61BA68D2B21A70EEE700BF1C37BD4680BC704780B584B000AF786039607B6857
S32D0000D5201B6BFB60FA683B689A4252D07B681B79002B35D07B6858787B6803F134010123FA6801F0F7F80346E4
S32D0000D548002B14BF01230023DBB2002B01D001233CE07B6800221A717B685A6A7B681B6A1344FA689A4217D28A
S32D0000D5707B68DB78FB72FB7A012B11D97B681B6AFA681344FB607B6858787B6803F134010123FA6801F0CEF8E7
S32D0000D598FB7A013BFB72EAE73B68002B15D07B6858787B6803F1340101233A6800F0DAFF0346002B14BF01230A
S32D0000D5C00023DBB2002B01D0012303E07B683A681A63002318461037BD4680BD80B584B000AF7860002178688F
S32D0000D5E8FFF794FF0346FB73FB7B002B40F093807B681B78032B7DD17B685B79002B79D07B6800221A637B686F
S32D0000D61034334FF4007200211846FFF75DFF7B68552283F832227B68AA2283F833227B68522283F834207B684E
S32D0000D638522283F835207B68612283F836207B68412283F837207B68722283F818227B68722283F819227B68F5
S32D0000D660412283F81A227B68612283F81B227B681B69DAB27B6883F81C227B681B699BB21B0A9BB2DAB27B6840
S32D0000D68883F81D227B681B691B0CDAB27B6883F81E227B681B691B0EDAB27B6883F81F227B68DB68DAB27B68B2
S32D0000D6B083F820227B68DB689BB21B0A9BB2DAB27B6883F821227B68DB681B0CDAB27B6883F822227B68DB68DC
S32D0000D6D81B0EDAB27B6883F823227B6858787B6803F134017B685A69012301F01FF87B6800225A717B685B78B5
S32D0000D70000220021184601F0E1F80346002B14BF01230023DBB2002B01D00123FB73FB7B18461037BD4680BD8C
S32D0000D72880B582B000AF78600B467B807B68002B08D07B681B78002B04D07B68DB887A889A4201D0092311E02C
S32D0000D7507B685B78184601F03BF9034603F00103002B14BF01230023DBB2002B01D0032300E00023184608379E
S32D0000D778BD4680BD80B586B000AF78607B681A687B689B8819461046FFF7CAFF0346FB75FB7D002B40F0AC80BA
S32D0000D7A07B689B7903F02003002B00F0A5807B689B7903F04003002B1BD07B681B6858787B6803F128017B68B2
S32D0000D7C89A69012300F0B2FF0346002B14BF01230023DBB2002B01D001238AE07B689B7923F04003DAB27B680A
S32D0000D7F09A717B681A687B68DB6919461046FFF789FE0346FB75FB7D002B75D17B681B6A3B613B690B331A7828
S32D0000D8183B690B3342F02002D2B21A707B68DA683B691C33D2B21A707B68DB689BB21B0A9AB23B691D33D2B21C
S32D0000D8401A707B68DB681A0C3B691E33D2B21A707B68DB681A0E3B691F33D2B21A707B681A693B691A33D2B2B4
S32D0000D8681A707B681B699BB21B0A9AB23B691B33D2B21A707B681B691A0C3B691433D2B21A707B681B691B0CCF
S32D0000D8909BB21B0A9AB23B691533D2B21A700023FB603B691633FA68D2B21A70FB689BB21B0A9AB23B691733C8
S32D0000D8B8D2B21A70FB681A0C3B691833D2B21A70FB681A0E3B691933D2B21A707B689B7923F02003DAB27B6889
S32D0000D8E09A717B681B6801221A717B681B681846FFF774FE0346FB75FB7D18461837BD4680BD80B584B000AF99
S32D0000D90878607868FFF736FF0346FB73FB7B002B02D17B6800221A60FB7B18461037BD4680BD000080B588B09C
S32D0000D93000AF7860396080233B610F23FB604FF0FF337B610223FB61FB69B3F5807F23D80123BB61BB69102B6A
S32D0000D9581AD8FB69BA6902FB03F33A6803FB02F27B68D31ABB60BB68002B09DBBB687A699A4205D9BB687B61C5
S32D0000D980FB693B61BB69FB60BB690133BB61E1E7FB695B00FB61D7E71D4BDB6A1C4A23F00803D3621A4BDB6AD5
S32D0000D9A823F47F2323F47F63BB613B695B081B029AB2FB68013B1B01DBB21A43BB691343114A43F46023D362AA
S32D0000D9D00F4B5B6A03F00803002B0CBF01230023DBB2002B03D00A2001F01AF9F0E7084BDB6A074A43F0080318
S32D0000D9F8D362054B1B6B044A43F48013136300BF2037BD4680BD00BF00100B4080B582B000AF786039607B688E
S32D0000DA2000221A60414B424ADA62404BDB6A03F08073002B14BF01230023DBB2002B00D0F3E73A4B0022C3F829
S32D0000DA48C020384B4FF481325A60364B28229A62344B4FF001125A643B689B6833491846FFF760FF2F4B5B6A33
S32D0000DA7003F00303002B14BF01230023DBB2002B00D0F3E72C4B40F243421A602A4B40F243425A60284B4FF4A4
S32D0000DA9888629A60264B40F24342DA60244B40F243421A61224B40F243425A61214B03F580531B6B1F4A43F43D
S32D0000DAC0003302F580521363184B4FF6FF721A63164B1B4A5A63154BDB6A144A43F00063D362124BDB6A03F04A
S32D0000DAE80063002B14BF01230023DBB2002B00D0F3E70C4B5B6A03F48033002B14BF01230023DBB2002B02D071
S32D0000DB107B6801221A60054B1B6B044A43F080031363002318460837BD4680BD00100B400080000160CC05000A
S32D0000DB3800D0044000700440B3007F0080B400AF064B5A6A40F207331340002B14BF01230023DBB21846BD46DB
S32D0000DB6080BC704700100B4080B485B000AF7860074B1B6B7A681340FB60FB68002B00D1F6E7FB6818461437A9
S32D0000DB88BD4680BC704700BF00100B4080B584B000AF78607B681B7803F03F03764A52F82330FB60FB68002B7E
S32D0000DBB005D17B681B78002B01D00123DCE0714B1B6B704A43F0800313636E4B5B6A03F00103002B14BF012360
S32D0000DBD80023DBB2002B00D0F3E7684A7B685B689360FB6823F44003FB607B685B789B0503F44003FA681343EF
S32D0000DC00FB607B685B78022B03D1FB6843F40013FB607B685B78042B16D1FB6803F44033B3F5003F08D1FB6820
S32D0000DC2823F44033FB60FB6843F44033FB6007E0FB6823F44033FB60FB6843F40033FB604E4B5B684D4A9BB2EA
S32D0000DC5053607B68DB68002B2AD0FB6803F44033B3F5403F03D0FB6843F40013FB607B681B7A002B03D0FB6800
S32D0000DC7843F01003FB607B68DB68012B03D9FB6843F02003FB607B68DB68B3F1FF3F0BD03A4B5A687B68DB684B
S32D0000DCA01B04384913434B60FB6843F00203FB60344B00221A60334AFB68D3603248FFF753FF0346012B14BF87
S32D0000DCC801230023DBB2002B09D02C4B1B6B2B4A43F4702343F001031363012348E0274B1B6B03F08003002B88
S32D0000DCF014BF01230023DBB2002B07D0214B1B6B204A43F001131363012335E01D4B1B6B03F48033002B14BF75
S32D0000DD1801230023DBB2002B08D0184B1B6B174A43F0011313634FF0FF3321E0FB6803F44033002B15D0114B54
S32D0000DD401A697B681A61FB6803F44033B3F5803F0BD10C4B5A697B685A610A4B9A697B689A61084BDA697B685D
S32D0000DD68DA61064B1B6B054A43F001031363002318461037BD4680BDD40E020000100B4001000E0080B592B0B2
S32D0000DD9000AF7860396000237B643B68BB63994B7B637B6B002B02D140F601235FE3964B3B633B6B002B02D11D
S32D0000DDB840F60B2357E33B6B1B68FB62FB6A002B02D140F60B234EE37B6841F20932934200F23F837B68B3F5BC
S32D0000DDE0985F08D87B68032B00F01A837B68092B00F0098331E37B68A3F59853013B082B00F22B8301A252F897
S32D0000DE0823F000BF31DE00001DE1000079E3000033E1000071E1000097E20000DFE2000021E200003BE20000F1
S32D0000DE307649786BFFF7EEFD78647B6C002B40F01083002387F84330002387F82B30002387F82A30002387F8E0
S32D0000DE582930002387F84230002387F8283000233B7200237B720023FB6000233B7400237B6107F108031846A5
S32D0000DE80FFF788FE0346002B14BF01230023DBB2002B02D001237B64E8E240F24C4000F0BFFE08233B720023AD
S32D0000DEA87B724FF4D573FB6000233B7400237B6107F108031846FFF769FEF863FB6B002B09D1BA69FB689A42C2
S32D0000DED002D001237B64C9E2012387F84230012387F8283097F82830002B00F0A58037233B7200237B72002333
S32D0000DEF8FB6000233B7400237B6107F108031846FFF744FEF863FB6B002B02D001237B64A8E269233B72002390
S32D0000DF207B720023FB6000233B7400237B6107F108031846FFF72EFE0346002B14BF01230023DBB2002B02D0FC
S32D0000DF4801237B648EE2BB6903F44013002B6FD00023FB630A2000F05FFEFB6B0133FB6337233B7200237B7259
S32D0000DF700023FB6000233B7400237B6107F108031846FFF707FE0346002B14BF01230023DBB2002B02D001239C
S32D0000DF987B6428E069233B7200237B7297F84230002B02D0184BFB6002E04FF44013FB6000233B7400237B61CB
S32D0000DFC007F108031846FFF7E5FD0346002B14BF01230023DBB2002B02D001237B6406E0BB69002B03DBFB6B66
S32D0000DFE8632B00D8B6E77B6C002B40F03882FB6B632B0BD9002387F8423019E02017002024190020C80E02009B
S32D0000E01000003040012387F8433097F84230002B0AD0002387F84230BB6903F08043002B02D0012387F8423056
S32D0000E03897F82A30002B02D07B6B07221A6097F82930002B02D07B6B08221A6097F82B30002B02D07B6B0422E9
S32D0000E0601A6097F84330002B09D07B6B02221A6097F84230002B02D07B6B03221A6097F82B30002B0DD097F88A
S32D0000E0884330002B09D07B6B05221A6097F84230002B02D07B6B06221A60924B00221A60904B00225A608F4BDC
S32D0000E0B000229A608D4B0022DA608C4B00221A618A4B00225A61FB6A9A68FB6A5B6819461046FFF72BFC854B9B
S32D0000E0D840F243421A60834B40F243425A60814B4FF488629A607F4B40F24342DA607D4B40F243421A617B4B3C
S32D0000E10040F243425A617A4B03F580531B6B784A43F4003302F580521363A7E1B86BFFF739FDF863FB6B002B3B
S32D0000E12800F09F8102237B649BE1BB6B002B02D10C237B6496E16D4BDB6A1B0A5B0003F4FF73FB63694BDB6A53
S32D0000E1501B0903F00F035A1CFB6B02FB03F3FB63FB6A9A68FB6BB2FBF3F2BB6B1A607DE1BB6B002B02D10C239B
S32D0000E1787B6477E1BB6B1B68002B02D10C237B6470E1FFF7DBFC0346002B0CBF01230023DBB2002B3CD0534B87
S32D0000E1A000221A60514B00225A60504B00229A604E4B0022DA604D4B00221A614B4B00225A61FB6A9A68BB6B5C
S32D0000E1C81B6819461046FFF7ADFB464B40F243421A60444B40F243425A60424B4FF488629A60404B40F243429B
S32D0000E1F0DA603E4B40F243421A613C4B40F243425A613B4B03F580531B6B394A43F4003302F58052136329E106
S32D0000E21840F60A237B6425E1BB6B002B02D10C237B641FE1314B5B68C3F30C02BB6B1A6018E1BB6B002B02D19E
S32D0000E2400C237B6412E1FFF77DFC0346002B0CBF01230023DBB2002B19D0BB6B1B68B3F5805F02D30C237B6406
S32D0000E26800E1224B5B68214A23F4FF5323F01F0353601E4B5A68BB6B1B68C3F30C031B4913434B60EEE040F6B9
S32D0000E2900A237B64EAE0BB6B002B02D10C237B64E4E0144B9B6A5B0803F00303FB63FB6B002B03D1BB6B0022C9
S32D0000E2B81A60D7E0FB6B012B03D1BB6B01221A60D0E0FB6B102B03D1BB6B02221A60C9E005237B64C6E0BB6B79
S32D0000E2E0002B09D10C237B64C0E000BF00D004400070044000100B40FFF724FC0346002B0CBF01230023DBB252
S32D0000E308002B31D0BB6B1B68002B0AD1584B9B6A574A23F006039362554B554A9B6A9362A0E0BB6B1B68012B24
S32D0000E3300CD1514B9B6A504A23F0060393624E4B9B6A4D4A43F0020393628FE0BB6B1B68022B0AD1484B9B6A7C
S32D0000E358474A23F006039362454B454A9B6A936280E005237B647DE040F60A237B6479E0BB6B002B02D10C232A
S32D0000E3807B6473E03C4BDB6A3B4A43F00063D362394BDB6A03F00063002B14BF01230023DBB2002B00D0F3E75B
S32D0000E3A8334B1B6B03F08003002B14BF01230023DBB2002B08D02E4B1B6B2D4A43F0800313637B6B00221A60D4
S32D0000E3D0294B5B6A03F48033002B14BF01230023DBB2002B07D07B6B1B68002B06D17B6B01221A6002E07B6BB2
S32D0000E3F800221A607B6B1A68BB6B1A6032E0BB6B1C221A60BB6B043304221A60BB6B08334FF41E721A6025E0B3
S32D0000E4200220FFF7A1FB144B1B6B03F4E003002B14BF01230023DBB2002B07D00E4B1B6B0D4A43F4E0031363C1
S32D0000E44804237B640A4B1B6B094A43F03203136308E040F609237B6404E000BF02E000BF00E000BF7B6C184643
S32D0000E4704837BD4680BD00BF00100B4080B489B000AF786039607B687B61364B3B613B69002B01D100235FE039
S32D0000E4983B691B68022B0BD03B691B68032B07D03B691B68072B03D03B691B68082B0BD12B4B5B6A03F0040364
S32D0000E4C0002B14BF01230023DBB2002B00D0F3E73B68FB61FB69002B3DD0FB69B3F5007F28BF4FF40073FB6069
S32D0000E4E8FB6803339B08BB61BB69002B2AD01C4B1B6B03F4E003002B14BF01230023DBB2002B09D0164B1B6BE1
S32D0000E510154A43F4E00343F02003136300231BE0114B5B6A03F40063002B0CBF01230023DBB2002B00D0F3E760
S32D0000E5380B497B691A1D7A610A6A1A60BB69013BBB61D1E7FA69FB68D31AFB61BEE7012318462437BD4680BC79
S32D0000E560704700BF2017002000100B4080B58EB000AFB9607A601A460346FB731346BB73414B7B63FB7B002BA7
S32D0000E58802D1BB7B002B01D1042375E03D4B1B78DBB203F00103002B14BF01230023DBB2002B01D0032367E009
S32D0000E5B0BB68002B01D1002362E07B6B1B7B002B02D17B685B027B60BB7B012B28D111233B7500237B757B68EE
S32D0000E5D8BB6101233B77BB7B3B6207F11403194641F20230FFF7CEFB0346002B0CBF01230023DBB2002B38D078
S32D0000E6004FF40071B868FFF739FF0346002B14BF01230023DBB2002B2BD00023BB7328E012233B7500237B7558
S32D0000E6287B68BB6101233B77BB7B3B6207F11403194641F20230FFF7A5FB0346002B0CBF01230023DBB2002B75
S32D0000E6500FD0BB7B5B021946B868FFF70FFF0346002B14BF01230023DBB2002B01D00023BB73BB7B002B01D00D
S32D0000E678012300E0002300BF18463837BD4680BD0C1700200400002080B487B000AF786039607B68FB603B68AE
S32D0000E6A07B617B69002B3DD07B69B3F5007F28BF4FF400733B617A693B69D31A7B613B6903339B083B613B6903
S32D0000E6C8002BEAD0184B1B6B03F4E003002B14BF01230023DBB2002B0AD0134B1B6B124A43F4E00343F0100305
S32D0000E6F013634FF0FF3316E00D4B5B6A03F48063002B0CBF01230023DBB2002B00D0F3E7FB681A1DFA60064A45
S32D0000E7181B6813623B69013B3B61D0E7012318461C37BD4680BC704700100B4080B58EB000AFB9607A601A460D
S32D0000E7400346FB731346BB735D4B7B63FB7B002B02D1BB7B002B01D10423ADE0594B1B78DBB203F00103002BA6
S32D0000E76814BF01230023DBB2002B01D003239FE0524B1B78DBB203F00403002B14BF01230023DBB2002B01D0B6
S32D0000E790022391E0BB68002B01D100238CE07B6B1B7B002B02D17B685B027B60BB7B012B28D118233B75002318
S32D0000E7B87B757B68BB6100233B77BB7B3B6207F11403194641F20230FFF7DCFA0346002B0CBF01230023DBB2EA
S32D0000E7E0002B38D04FF40071B868FFF751FF0346002B14BF01230023DBB2002B2BD00023BB7328E019233B7538
S32D0000E80800237B757B68BB6100233B77BB7B3B6207F11403194641F20230FFF7B3FA0346002B0CBF012300232C
S32D0000E830DBB2002B0FD0BB7B5B021946B868FFF727FF0346002B14BF01230023DBB2002B01D00023BB730D235D
S32D0000E8583B7500237B757B6B1B69BB6100233B7700233B6207F11403194641F20230FFF789FA0346002B14BF21
S32D0000E88001230023DBB2002B01D0012314E07A6A0D4B1340002B01D001230DE07B6A03F4F853B3F5106F00D0C8
S32D0000E8A8D5E7BB7B002B01D0012300E0002300BF18463837BD4680BD0C170020040000200880D9FF80B58CB029
S32D0000E8D000AF03463A60FB710B46BB713A4BBB62FB79002B01D0042369E0012387F82F30364B1B78DBB203F087
S32D0000E8F80103002B14BF01230023DBB2002B01D0032358E0BB79032B50D801A252F823F029E9000031E900000C
S32D0000E92041E9000051E90000002387F82F3044E0BB6A9A683B681A60002387F82F303CE03B684FF400721A80ED
S32D0000E948002387F82F3034E009233B7200237B72BB6A1B69FB6000233B7400237B6107F10803194641F2023007
S32D0000E970FFF70CFA0346002B14BF01230023DBB2002B01D001231AE07B6A03F44003002B0CD13B6A9B0C03F0E2
S32D0000E9987F035A1C7B6A1B0A03F00303013B9A403B681A60002387F82F3002E0042387F82F3097F82F301846EF
S32D0000E9C03037BD4680BD00BF0C1700200400002080B483B000AF0346FB71FB79002B01D0012302E0034B1B783A
S32D0000E9E8DBB218460C37BD4680BC70470400002080B483B000AF7860164B03F580539B6B144A43F0010302F50D
S32D0000EA1080529363124A7B689360114B05225A600F4B1B680E4A43F0010313600C4B1B6803F08003002B0CBF7C
S32D0000EA3801230023DBB2002B00D0F3E7064B1B68054A23F00103136000BF0C37BD4680BC704700BF00700440EF
S32D0000EA600000044080B582B000AF786039607B68012B07D13B684FF6FF72934202D1034800F00EF800BF083796
S32D0000EA88BD4680BD2C19002080B500AF4FF6FF710120FFF7E3FF80BD80B483B000AF78607B6800221A707B688C
S32D0000EAB018460C37BD4680BC7047000080B582B000AF78607B681B7883F00103DBB2002B21D0134B03F58053F4
S32D0000EAD81A464FF400639362104B4FF440721A620E4B4FF440725A620D4B1B68DA0F13445B104FF46142194674
S32D0000EB000A48FEF7FDFB642000F08AF87B6801221A70012300E0002318460837BD4680BD0070044000D0044056
S32D0000EB283019002000B00E4080B582B000AF7860084611461A460346FB700B46BB7013467B707F210E48FEF706
S32D0000EB50AAFC08210C48FEF7A6FCFB7819460A48FEF7A1FCBB7819460748FEF79CFC7B7819460548FEF797FC92
S32D0000EB78FF210348FEF793FC00BF0837BD4680BD00B00E4080B487B000AFF860B9607A60FB681F4AA2FB032350
S32D0000EBA09B09BA6813447B61FB681B4AA2FB031292094FF47A7101FB02F29B1AFB60FB68DB03154AA2FB0323A8
S32D0000EBC89B097A6813443B613B69DB0B7A6913447B613B69C3F30E033B610E4B1B687A699A4209D80B4B1B68AA
S32D0000EBF07A699A4206D1094B5B683A699A4201D9012300E00023002B00D0EAE700BF1C37BD4680BC704700BF37
S32D0000EC18D34D621000D0034080B584B000AF7860074B1B68FB60064B5B68BB607B68BA68F9681846FFF7A6FF7B
S32D0000EC4000BF1037BD4680BD00D0034080B584B000AFC7E900010E4B1B68FB600C4B5B68BB604FF000020B4B81
S32D0000EC68D7E9000109F0DCFD02460B46104619460AF098F80346BA68F9681846FFF782FF00BF1037BD4680BD2C
S32D0000EC9000D0034000408F4080B582B000AF78600B46FB70FB781946786800F005F87B6818460837BD4680BD2B
S32D0000ECB880B483B000AF78600B46FB707B68FA781A707B681B781A46534B9B5C042B00F29E8001A252F823F0FB
S32D0000ECE0F5EC00002FED000069ED0000A3ED0000DDED00004B4A7B681B7819464A4B53F8213040F2031142F83E
S32D0000ED082310484B5A697B681B781946444B53F8213003F01F03012101FA03F3DB43414913404B6173E0404AA8
S32D0000ED307B681B7819463C4B53F8213040F2031142F823103B4B5A697B681B781946364B53F8213003F01F03BA
S32D0000ED58012101FA03F3DB43344913404B6156E0334A7B681B7819462D4B53F8213040F2031142F823102F4B17
S32D0000ED805A697B681B781946274B53F8213003F01F03012101FA03F3DB43284913404B6139E0274A7B681B7809
S32D0000EDA819461F4B53F8213040F2031142F82310224B5A697B681B781946194B53F8213003F01F03012101FAEE
S32D0000EDD003F3DB431B4913404B611CE01A4A7B681B781946104B53F8213040F2031142F82310164B5A697B68B8
S32D0000EDF81B7819460A4B53F8213003F01F03012101FA03F3DB430F4913404B6100BF00BF0C37BD4680BC7047B6
S32D0000EE20D40F0200009004401810020000F00F4000A0044040F00F4000B0044080F00F4000C00440C0F00F4089
S32D0000EE4800D0044000F10F4080B485B000AF78600023FB607B681B781A46364B9B5C042B5CD801A252F823F029
S32D0000EE7085EE0000A5EE0000C5EE0000E5EE000005EF00002E4B1B697A68127811462D4A52F8212002F01F021F
S32D0000EE98012101FA02F21340FB603FE0284B1B697A6812781146254A52F8212002F01F02012101FA02F2134043
S32D0000EEC0FB602FE0214B1B697A68127811461D4A52F8212002F01F02012101FA02F21340FB601FE01A4B1B695B
S32D0000EEE87A6812781146154A52F8212002F01F02012101FA02F21340FB600FE0134B1B697A68127811460D4A92
S32D0000EF1052F8212002F01F02012101FA02F21340FB6000BFFB68002B14BF01230023DBB218461437BD4680BC9A
S32D0000EF38704700BFD40F020000F00F401810020040F00F4080F00F40C0F00F4000F10F4080B584B000AF78607A
S32D0000EF600B46FB700B23FB73FA7BFB781946786800F094F87B6818461037BD4680BD000080B485B000AF7860D0
S32D0000EF887B68103B002B00DA1F335B11FB60FB68022B53D0FB68022B75DCFB68002B03D0FB68012B25D06EE048
S32D0000EFB0394BD3F880217B68103B594203F01F0301F01F0158BF4B42012101FA03F332491343C1F88031304BE7
S32D0000EFD81A687B68103B594203F01F0301F01F0158BF4B42012101FA03F3294913430B6049E0274BD3F88421A5
S32D0000F0007B68103B594203F01F0301F01F0158BF4B42012101FA03F31F491343C1F884311D4B5A687B68103BB8
S32D0000F028594203F01F0301F01F0158BF4B42012101FA03F3164913434B6024E0144BD3F888217B68103B594242
S32D0000F05003F01F0301F01F0158BF4B42012101FA03F30D491343C1F888310B4B9A687B68103B594203F01F0361
S32D0000F07801F01F0158BF4B42012101FA03F3044913438B6000BF00BF1437BD4680BC704700E100E080B584B02B
S32D0000F0A000AF78600B46FB701346BB707B68FA781A70BB78FB737B681B781A46574B9B5C042B00F2A68001A2A2
S32D0000F0C852F823F0E1F000002DF1000079F1000011F20000C5F10000FB7B1B0403F470234D497A681278104634
S32D0000F0F04C4A52F8202043F4897343F0010341F82230494B5A697B681B781946454B53F8213003F01F0301214E
S32D0000F11801FA03F3DB43424913404B616720FFF72BFF72E0FB7B1B0403F470233D497A6812781046394A52F803
S32D0000F140202043F4897343F0010341F82230384B5A697B681B781946324B53F8213003F01F03012101FA03F310
S32D0000F168DB43314913404B616820FFF705FF4CE0FB7B1B0403F470232C497A6812781046264A52F8202043F4AD
S32D0000F190897343F0010341F82230274B5A697B681B7819461F4B53F8213003F01F03012101FA03F3DB432049D4
S32D0000F1B813404B616920FFF7DFFE26E0FB7B1B0403F470231B497A6812781046134A52F8202043F4897343F036
S32D0000F1E0010341F82230164B5A697B681B7819460C4B53F8213003F01F03012101FA03F3DB430F4913404B61E9
S32D0000F2086B20FFF7B9FE00E000BF00BF1037BD4680BD00BFD40F0200009004401810020000F00F4000A00440F6
S32D0000F23040F00F4000B0044080F00F4000D0044000F10F40B0B48BB000AF224B3C1D1D460FCD0FC495E80F0078
S32D0000F25884E80F0000237B627B6A072B30DC1C4BD3F8A0207B6A9B0028333B4453F8243C012101FA03F313408D
S32D0000F280002B14BF01230023DBB2002B18D0134A7B6A52F823305A1C10497B6A41F823200D4BD3F8A0207B6AA4
S32D0000F2A89B0028333B4453F8243C012101FA03F307491340C1F8A0307B6A01337B62CBE700BF2C37BD46B0BCA0
S32D0000F2D0704700BF1C11020000A004405C190020B0B489B000AF224B3C1D1D460FCD0FC495E8030084E80300DF
S32D0000F2F80023FB61FB69052B30DC1C4BD3F8A020FB699B0020333B4453F81C3C012101FA03F31340002B14BFFF
S32D0000F32001230023DBB2002B18D0FB690833124A52F823200132104941F823200D4BD3F8A020FB699B00203313
S32D0000F3483B4453F81C3C012101FA03F307491340C1F8A030FB690133FB61CBE700BF2437BD46B0BC704700BF91
S32D0000F3703C11020000B004405C190020B0B48DB000AF234B3C461D460FCD0FC40FCD0FC495E8070084E807009F
S32D0000F3980023FB62FB6A0A2B30DC1C4BD3F8A020FB6A9B0030333B4453F8303C012101FA03F31340002B14BF32
S32D0000F3C001230023DBB2002B18D0FB6A0E33124A52F823200132104941F823200D4BD3F8A020FB6A9B0030335B
S32D0000F3E83B4453F8303C012101FA03F307491340C1F8A030FB6A0133FB62CBE700BF3437BD46B0BC704700BFCB
S32D0000F41054110200009004405C190020B0B487B000AF214B3C461D460FCD0FC42B68236000237B617B69042B8C
S32D0000F43830DC1C4BD3F8A0207B699B0018333B4453F8183C012101FA03F31340002B14BF01230023DBB2002B5D
S32D0000F46018D07B691933124A52F823200132104941F823200D4BD3F8A0207B699B0018333B4453F8183C012188
S32D0000F48801FA03F307491340C1F8A0307B6901337B61CBE700BF1C37BD46B0BC704700BF8011020000D00440F5
S32D0000F4B05C19002080B483B000AF78607B681B781A46044B53F8223018460C37BD4680BC704700BF5C190020FE
S32D0000F4D880B483B000AF78607B681B781946044B002243F8212000BF0C37BD4680BC70475C19002080B483B062
S32D0000F50000AF78600B46FB707B68FA781A707B6818460C37BD4680BC7047000080B586B000AF78607B681B78D9
S32D0000F5281A46234B53F822303B617B681B781A46204B9B5CFB733B69DBB203F01F03DAB21D4B1A723B69DBB211
S32D0000F55003F01F03DAB21A4B5A72FB7B002B13D11749184800F0CEF9164B1B6803F08003802B14BF01230023A0
S32D0000F578DBB2002B00D0F3E7104B1B697B6112E00D490F4800F0BAF90D4B1B6803F08003802B14BF01230023F0
S32D0000F5A0DBB2002B00D0F3E7074B1B697B617B6918461837BD4680BD98100200F40F02004C19002000B0034031
S32D0000F5C800B00B4098B500AF204B5C221A701F4B10225A701D4B41F234225A801B4B45F278629A80194B102253
S32D0000F5F09A71184B0722DA71164B4FF4C022DA60144B1F221A72134B1F225A721149124800F078F90F491148EE
S32D0000F61800F074F90F4800F0D2F80D4800F0CFF80A490C4800F06AF90849094800F066F9094A064B14460FCB87
S32D0000F64084E80F00064B5C221A70054B0422DA7100BF98BD3C19002000B0034000B00B404C19002080B500AF27
S32D0000F668064B1B680133054A136000F03DF8044B0122C3F80C2100BF80BD00BFE01900200070034080B500AFC0
S32D0000F6900C4B01221A600C4800F01AF8094B0322C3F80821094BD3F88831084A43F01003C2F88831054B9B686F
S32D0000F6B8044A43F01003936000BF80BD00700340A086010000E100E080B483B000AF7860044A7B68C2F80031FC
S32D0000F6E000BF0C37BD4680BC704700BF0070034080B584B000AF174B1B68FB60FB68002B24D0FB685B78FB7116
S32D0000F708FB689B68184600F023F80346BB71BB79002B13D0FB685B68012B0FDDFB689B681B69BB60BB68002BBC
S32D0000F73008D0BB685B685A1CBB685A60BB681B69BB60F3E7FB68DB68FB60D7E700BF1037BD4680BDDC190020E4
S32D0000F75880B584B000AF78607868FFF7DBFEF8607B689B695B78FB72FB7A002B0FD17B68DB68FA689A420ADD9A
S32D0000F7807B689B6901225A707B685B685A1C7B685A60012313E0FB7A012B0FD17B689B68FA689A420ADA7B684B
S32D0000F7A89B6900225A707B685B685A1C7B685A60012300E0002318461037BD4680BD80B485B000AF78607B68AB
S32D0000F7D01B6A23F040027B681A627B685B6A23F00B027B685A627B685B6A43F007027B685A627B685B6A43F00D
S32D0000F7F880027B685A627B681B6803F08003002B0CBF01230023DBB2002B00D0F3E77B685B6A03F04003402BFE
S32D0000F8200CBF01230023DBB2002B01D0012364E00023FB817B68DB6CFB817B689B6C9AB2FB891344FB817B6802
S32D0000F8485B6C9AB2FB891344FB817B681B6C9AB2FB891344FB817B68DB6B9AB2FB891344FB817B689B6B9AB21A
S32D0000F870FB891344FB81FB895B08FB81FB896FEA43436FEA5343FB81FA897B68DA620023FB817B68DB6EFB81F9
S32D0000F8987B689B6E9AB2FB891344FB817B685B6E9AB2FB891344FB817B681B6E9AB2FB891344FB817B68DB6D2A
S32D0000F8C09AB2FB891344FB817B689B6D9AB2FB891344FB81FB895B08FB81FB896FEA43436FEA5343FB81FA8935
S32D0000F8E87B681A637B685B6A23F080027B685A62002318461437BD4680BC704780B483B000AF786039603B68CA
S32D0000F9101B781A467B689A603B685B781A467B68DA603B685B881A467B689A613B689B881A467B68DA613B685B
S32D0000F9389B791A467B681A623B68DB791A467B685A623B68DA687B681A653B681B7A1A467B681A603B685B7A24
S32D0000F9601A467B685A6000BF0C37BD4680BC704780B483B000AF78607B6818460C37BD4680BC704780B582B0B5
S32D0000F98800AF786039607B68012B07D13B684FF6FF72934202D10348FFF7E6FF00BF0837BD4680BDE4190020C8
S32D0000F9B080B500AF4FF6FF710120FFF7E3FF80BD80B582B000AF7860B84B4FF48072DA60B74B4FF480729A64C5
S32D0000F9D8B54B4FF480721A64B34B4FF480725A64B14B4FF48072DA60B04B5B69AF4A43F008035361AE4B5B698B
S32D0000FA00AD4A43F480235361AB4B5B69AA4A43F480335361A84B5B69A74A43F400335361A54B1B68A44A43F0AD
S32D0000FA2808031360A24B5B69A14A43F0080353619E4B1B689D4A43F0080313609A4B4FF480725A62984B4FF4A4
S32D0000FA5080721A62954B4FF480721A61934B4FF480725A61914B4FF480729A618F4B4FF48072DA618D4B4FF44B
S32D0000FA7880721A638B4B4FF480725A63894B4FF480729A63874B4FF48072DA63854B4FF480721A64834B4FF44B
S32D0000FAA080725A64814B4FF480729A647F4B4FF48072DA64814B4FF480721A607F4B4FF480729A607D4B4FF4CD
S32D0000FAC88072DA607B4B4FF480721A61784B5B69774A43F440735361744B5B69734A43F47F2343F0F003536195
S32D0000FAF0734B5B69724A43F01D035361E221786800F0B0FB1D21786800F052FC0221786800F04EFC0421786887
S32D0000FB1800F04AFCE021786800F0A0FB0121786800F042FC6420FFF777F8E021786800F095FB0321786800F0AF
S32D0000FB4037FC0121786800F08DFB0120FFF768F8E621786800F086FB0121786800F028FCA021786800F024FC54
S32D0000FB68FF21786800F020FCB021786800F076FB1C21786800F018FC0F21786800F014FC0121786800F010FC22
S32D0000FB903F21786800F00CFC0021786800F008FCEF21786800F004FC0021786800F000FCB421786800F056FB57
S32D0000FBB80121786800F0F8FB9921786800F0F4FB0021786800F0F0FB4521786800F0ECFB0221786800F0E8FBF2
S32D0000FBE00021786800F0E4FB0021786800F0E0FB0021786800F0DCFBB621786800F032FB0121786800F0D4FBFE
S32D0000FC080921786800F0D0FB0021786800F0CCFB0E21786800F0C8FB0221786800F0C4FB0021786800F0C0FB31
S32D0000FC300021786800F0BCFBBA21786800F012FB0F21786800F0B4FB6420FEF7E9FF3A21786800F007FB602188
S32D0000FC58786800F0A9FB2A21786800F0FFFA0021786800F0A1FB0021786800F09DFB0121786800F099FB3F21FA
S32D0000FC80786800F095FB2B21786800F0EBFA0021786800F08DFB0021786800F089FB0021786800F085FBEF2186
S32D0000FCA878680BE000B0044000A0044080F00F4040F00F4000C00440C0F00F4000F074FB3621786800F0CAFA00
S32D0000FCD00021786800F06CFBF021786800F0C2FA0421786800F064FBB821786800F0BAFA0F21786800F05CFB09
S32D0000FCF80121786800F058FB314B1B68304A43F0080313606420FEF787FF3621786800F0A5FA0021786800F0B9
S32D0000FD2047FBF021786800F09DFA0421786800F03FFB0121786800F0BCF91E226F21786800F082F8AF225621C3
S32D0000FD48786800F0DBF80021786800F0FFF9012301221C49786800F020FA2921786800F07DFA6420FEF758FF0A
S32D0000FD70BE21786800F076FA0E21786800F018FBF021786800F014FB0121786800F010FB0021786800F00CFB4F
S32D0000FD980021786800F008FB0F21786800F004FB786800F01DFA0121786800F0CFF90021786800F0A4F900BF5C
S32D0000FDC00837BD4680BD00BF40F00F409411020080B582B000AF78607B680022DA617B6801221A627B680E22EE
S32D0000FDE85A607B681A229A607B6800225A617B6800229A617B684FF4A072DA607B68F0221A617B6800221A70E9
S32D0000FE10786800F0C1FE7B6818460837BD4680BD80B582B000AF7860064B1B78002B05D1044B01221A707868C6
S32D0000FE38FFF7C2FD00BF0837BD4680BD2C1A002080B58AB002AFF860B9607A607E23009362237A68B968F868BC
S32D0000FE6000F015FC40F24E733B610023FB61FA693B699A4240DA0023BB61214AFB6913441B781A46BB69934217
S32D0000FE8832DAFB6901331C4AD35C002B06D1FF23FB75FF23BB75FF237B7512E0FB690133154AD35C012B06D100
S32D0000FEB0D423FB750023BB7526237B7505E0B523FB75BA23BB75B0237B757B7DBA7DF97DF86800F0C9F8024636
S32D0000FED8FB68DA61F86800F05BFEF86800F094FDBB690133BB61C4E7FB690233FB61BAE700BF2037BD4680BDC9
S32D0000FF000800002080B58AB002AFF860B9607A602723009395237A68B968F86800F0B7FB40F2E6333B6100239C
S32D0000FF28FB61FA693B699A4240DA0023BB61214AFB6913441B781A46BB69934232DAFB6901331C4AD35C002B9D
S32D0000FF5006D1FF23FB75FF23BB75FF237B7512E0FB690133154AD35C012B06D10023FB750023BB7500237B75A2
S32D0000FF7805E0D423FB750023BB7526237B757B7DBA7DF97DF86800F06BF80246FB68DA61F86800F0FDFDF8689B
S32D0000FFA000F036FDBB690133BB61C4E7FB690233FB61BAE700BF2037BD4680BD5807002080B485B000AF786096
S32D0000FFC80B46FB70FB78062B29D801A252F823F0FDFF0000F5FF0000030001000B00010013000100190001007C
S32D0000FFF0210001006FF07F43FB6014E00023FB6011E04FF47F03FB600DE04FF47F43FB6009E0FF23FB6006E029
S32D000100184FF41903FB6002E0044BFB6000BFFB6818461437BD4680BC704700BF9999990080B584B000AF786038
S32D0001004039603B681B0CFB733B681B0ABB733B687B737B7BBA7BF97B786800F005F8034618461037BD4680BD9F
S32D0001006880B487B000AF7860084611461A460346FB700B46BB7013467B70FB789B08DBB27B61BB789B08DBB21C
S32D000100903B617B789B08DBB2FB607B691A033B699B011A43FB68134318461C37BD4680BC704780B582B000AF13
S32D000100B878600B46FB70FB7819467868FFF77CFF03461946786800F004F800BF0837BD4680BD80B582B000AF9A
S32D000100E07860396039687868FFF7A6FF02467B681A62786800F050FD786800F0F1F900BF0837BD4680BD80B573
S32D0001010882B000AF78600B46FB70FB7819467868FFF752FF03461946786800F004F800BF0837BD4680BD80B573
S32D0001013082B000AF7860396039687868FFF77CFF02467B681A62786800F026FD00BF0837BD4680BD80B582B01D
S32D0001015800AF78600B46FB70FB7819467868FFF72BFF03461946786800F004F800BF0837BD4680BD80B582B04A
S32D0001018000AF7860396039687868FFF755FF02467B68DA61786800F0FFFC00BF0837BD4680BD80B586B000AFDC
S32D000101A8F860B9607A603B6000237B617B69BA6813441B78002B0FD07B69BA6813441B783A687968F86800F086
S32D000101D0DDFA7B680C337B607B6901337B61E9E700BF1837BD4680BD80B582B000AF7860FDF736F86721012061
S32D000101F8FCF7C5FF00210220FCF7C1FFA0210320FCF7BDFF50210420FCF7B9FF20210520FCF7B5FF20210620E4
S32D00010220FCF7B1FF77210720FCF7ADFF00210820FCF7A9FF00210920FCF7A5FF00210A20FCF7A1FF04210B20BB
S32D00010248FCF79DFF7B684FF0FF32DA637B684FF0FF321A6400BF0837BD4680BD80B483B000AF78600B46FB70AF
S32D000102704D4B1B684C4A23F0080313604B4B1B684A4A23F480231360484B1B68474A43F480331360454B1B682C
S32D00010298444A23F440731360414B1B68404A23F4435323F0300313603E4B1A68FB785B0203F400733B4913434E
S32D000102C00B603A4B1A68FB785B101B0203F48073364913430B60344B1A68FB789B101B0103F010033049134368
S32D000102E80B602F4B1A68FB78DB105B0103F020032B4913430B602A4B1A68FB781B119B0103F04003264913434E
S32D000103100B60254B1A68FB785B11DB01DBB2224913430B60204B1A68FB789B111B0303F480531D4913430B60D2
S32D000103381B4B1A6897F90330DB115BB25B0303F40053174913430B60164B1B68154A23F400331360134B1B6848
S32D00010360124A43F4003313600F4B1B680E4A43F0080313600D4B1B680C4A43F440731360094B1B68084A43F461
S32D00010388435343F030031360064B1B68054A43F48023136000BF0C37BD4680BC704700BF80F00F4040F00F4072
S32D000103B080B483B000AF78600B46FB70464B1B68454A23F008031360444B1B68434A43F480331360414B1B6835
S32D000103D8404A43F4802313603E4B1B683D4A23F4407313603A4B1B68394A23F4435323F030031360374B1A685A
S32D00010400FB785B0203F40073344913430B60334B1A68FB785B101B0203F480732F4913430B602D4B1A68FB78CA
S32D000104289B101B0103F01003294913430B60284B1A68FB78DB105B0103F02003244913430B60234B1A68FB784F
S32D000104501B119B0103F040031F4913430B601E4B1A68FB785B11DB01DBB21B4913430B60194B1A68FB789B11F9
S32D000104781B0303F48053164913430B60144B1A6897F90330DB115BB25B0303F40053104913430B600F4B1B6811
S32D000104A00E4A23F4003313600C4B1B680B4A43F400331360084B1B68074A43F008031360064B1B68054A23F4FA
S32D000104C88023136000BF0C37BD4680BC704700BF80F00F4040F00F4080B586B000AF78607B6800225A617B6865
S32D000104F000229A617B681B6AFB60FB68FB72FB681B0ABB72FB681B0CDBB203F003037B722A217868FFF7A6FEB6
S32D0001051800217868FFF748FF00217868FFF744FF01217868FFF740FF3F217868FFF73CFF2B217868FFF792FEE2
S32D0001054000217868FFF734FF00217868FFF730FF00217868FFF72CFFEF217868FFF728FF2C217868FFF77EFE6E
S32D00010568314B1B68304A23F4407313602F4B1B682E4A23F47F2323F0F00313602C4B1B682B4A23F01D031360F2
S32D00010590274B1A687B681B6B254913430B60254B1A687B685B6B234913430B60224B1A687B689B6B2049134351
S32D000105B80B601E4B1B681D4A23F0080313601A4B1B68194A43F48023136000237B617B69EF2B19D800233B6180
S32D000105E03B69B3F5A07F0FD2114B1B68104A23F4003313600E4B1B680D4A43F4003313603B6901333B61EBE754
S32D000106087B6901337B61E2E7084B1B68074A43F008031360044B1B68034A23F48023136000BF1837BD4680BD94
S32D0001063040F00F4080F00F40C0F00F4080B483B000AF78607B689B69002B07DD7B685B695A1C7B685A617B68DC
S32D0001065800229A6100BF0C37BD4680BC704780B582B000AF78607B685A697B685B689A4205DB7B6800225A61A8
S32D000106807868FFF72DFF00BF0837BD4680BD80B588B000AFF860B9607A603B60FB681B78022B03D0FB681B781D
S32D000106A8032B11D17B68FB61BA6AFB691344013BBB61FB68DA68BB68D31A3B613B683A69D31A01337B610DE01C
S32D000106D0BB68FB613A68FB691344013BBB617B687B61BA6A7B691344013B3B612A21F868FFF7B8FDFB691B0AF2
S32D000106F8DBB203F00F03DBB21946F868FFF754FEFB69DBB21946F868FFF74EFEBB691B0ADBB203F00F03DBB253
S32D000107201946F868FFF744FEBB69DBB21946F868FFF73EFE2B21F868FFF794FD7B691B0ADBB203F00F03DBB2B6
S32D000107481946F868FFF730FE7B69DBB21946F868FFF72AFE3B691B0ADBB203F00F03DBB21946F868FFF720FE96
S32D000107703B69DBB21946F868FFF71AFE2C21F868FFF770FD00BF2037BD4680BD80B58EB002AFF860B9607A6087
S32D00010798FB70FB780A2B06D1F868FFF760FFF868FFF748FFF2E0FB787D2B02D8FB781F2B01D82023FB70FB7878
S32D000107C0203BFB70112300930C237A68B968F868FFF75DFFFA7813469B0013446F4AD35C3B75FA7813469B00DE
S32D000107E8134401336B4AD35C7B75FA7813469B0013440233674AD35CBB75FA7813469B0013440333634AD35CB2
S32D00010810FB75FA7813469B00134404335F4AD35C3B760023BB62BB6A062B00F3A180F86800F050F9F86800F039
S32D00010838B3F8002387F82F3000237B627B6A042B35DC07F114027B6A13441B7803F00103002B14BF01230023A7
S32D00010860FB76FB7E002B11D097F82F3083F00103DBB2002B03D0F86800F0CAF802E0F86800F08EF8F86800F069
S32D000108888BF80DE097F82F30002B03D0F86800F01DF902E0F86800F07FF8F86800F07CF8FB7E87F82F307B6AD6
S32D000108B001337B62C6E797F82F30002B03D0F86800F008F902E0F86800F06AF8F86800F067F8002387F82F30DA
S32D000108D800233B623B6A042B42DC07F114023B6A13441B7803F00103002B14BF01230023BB76BB7E002B11D0F0
S32D0001090097F82F3083F00103DBB2002B03D0F86800F07EF802E0F86800F042F8F86800F03FF80DE097F82F3044
S32D00010928002B03D0F86800F0D1F802E0F86800F033F8F86800F030F8BB7E87F82F3007F114023B6A13441B7800
S32D000109505B08D9B207F114023B6A13440A461A703B6A01333B62B9E7BB6A0133BB625AE7F86800F0AFF80023BF
S32D0001097887F82F300123FB61FB69232B06DCF86800F00AF8FB690133FB61F5E73037BD4680BD00BF400B00206B
S32D000109A080B483B000AF7860174B1B68164A43F480331360154B1B68144A23F008031360114B1B68104A43F456
S32D000109C8802313600E4B1B680D4A23F4003313600B4B1B680A4A43F400331360094B1B68084A43F00803136016
S32D000109F0054B1B68044A23F48023136000BF0C37BD4680BC704700BF40F00F4080F00F4080B483B000AF7860A7
S32D00010A182B4B1B682A4A43F480331360294B1B68284A23F008031360254B1B68244A43F480231360224B1B684D
S32D00010A40214A23F440731360204B1B681F4A23F47F2323F0F00313601D4B1B681C4A23F01D031360184B1A687A
S32D00010A687B685B6A164913430B60164B1A687B689B6A144913430B60134B1A687B68DB6A114913430B600E4B32
S32D00010A901B680D4A23F4003313600B4B1B680A4A43F400331360094B1B68084A43F008031360054B1B68044A9B
S32D00010AB823F48023136000BF0C37BD4680BC704740F00F4080F00F40C0F00F4080B483B000AF78602B4B1B68C6
S32D00010AE02A4A43F480331360294B1B68284A23F008031360254B1B68244A43F480231360224B1B68214A23F4FC
S32D00010B0840731360204B1B681F4A23F47F2323F0F00313601D4B1B681C4A23F01D031360184B1A687B681B6BCA
S32D00010B30164913430B60164B1A687B685B6B144913430B60134B1A687B689B6B114913430B600E4B1B680D4AB5
S32D00010B5823F4003313600B4B1B680A4A43F400331360094B1B68084A43F008031360054B1B68044A23F48023F2
S32D00010B80136000BF0C37BD4680BC704740F00F4080F00F40C0F00F4080B485B000AF78607B681B6AFB60FB6888
S32D00010BA8FB72FB681B0ABB72FB681B0CDBB203F003037B727B6800225A627B6800229A627B680022DA627B6819
S32D00010BD000221A637B6800225A637B6800229A637B681A6BFB7A5B0203F400731A437B681A637B681A6BFB7A55
S32D00010BF85B101B0203F480731A437B681A637B685A6BFB7A9B101B0103F010031A437B685A637B685A6BFB7A9B
S32D00010C20DB105B0103F020031A437B685A637B685A6BFB7A1B119B0103F040031A437B685A637B685A6BFB7A16
S32D00010C485B11DB01DBB21A437B685A637B685A6BFB7A9B111B0303F480531A437B685A637B685A6B97F90B308A
S32D00010C70DB115BB25B0303F400531A437B685A637B685A6BBB7A9B0303F480431A437B685A637B685A6BBB7AA8
S32D00010C985B10DB039BB21A437B685A637B685A6BBB7A9B101B0403F480331A437B685A637B685A6BBB7ADB1084
S32D00010CC05B0403F400331A437B685A637B685A6BBB7A1B119B0403F480231A437B685A637B685A6BBB7A5B11F7
S32D00010CE8DB0403F400231A437B685A637B689A6BBB7A9B1103F001031A437B689A637B689A6B97F90A30DB114C
S32D00010D105BB29B0003F004031A437B689A637B689A6B7B7ADB0003F008031A437B689A637B689A6B7B7A5B109A
S32D00010D381B0103F010031A437B689A637B68DB69FB60FB68FB72FB681B0ABB72FB681B0CDBB203F003037B7229
S32D00010D607B685A6AFB7A5B0203F400731A437B685A627B685A6AFB7A5B101B0203F480731A437B685A627B6818
S32D00010D889A6AFB7A9B101B0103F010031A437B689A627B689A6AFB7ADB105B0103F020031A437B689A627B68E2
S32D00010DB09A6AFB7A1B119B0103F040031A437B689A627B689A6AFB7A5B11DB01DBB21A437B689A627B689A6A0D
S32D00010DD8FB7A9B111B0303F480531A437B689A627B689A6A97F90B30DB115BB25B0303F400531A437B689A6218
S32D00010E007B689A6ABB7A9B0303F480431A437B689A627B689A6ABB7A5B10DB039BB21A437B689A627B689A6A3E
S32D00010E28BB7A9B101B0403F480331A437B689A627B689A6ABB7ADB105B0403F400331A437B689A627B689A6A03
S32D00010E50BB7A1B119B0403F480231A437B689A627B689A6ABB7A5B11DB0403F400231A437B689A627B68DA6AB9
S32D00010E78BB7A9B1103F001031A437B68DA627B68DA6A97F90A30DB115BB29B0003F004031A437B68DA627B6819
S32D00010EA0DA6A7B7ADB0003F008031A437B68DA627B68DA6A7B7A5B101B0103F010031A437B68DA6200BF143766
S32D00010EC8BD4680BC7047000080B582B000AF786039607B68012B07D13B684FF6FF72934202D10348FEF770FFE7
S32D00010EF000BF0837BD4680BDE819002080B500AF4FF6FF710120FFF7E3FF80BD80B582B000AF7860164B03F55E
S32D00010F1880535B6B144A43F0400302F580525363124B4FF400725A62104B4FF400721A620F4B14225A700E4BB1
S32D00010F401B7ADBB20C4A43F00103DBB213720A4B80229A7002212B20FCF79EF83D212A20FCF79AF87B6818465B
S32D00010F680837BD4680BD00BF0070044000C004400060064080B582B000AF786039607B68012B07D13B684FF668
S32D00010F90FF72934202D10348FFF7B8FF00BF0837BD4680BD301A002080B500AF4FF6FF710120FFF7E3FF80BDAA
S32D00010FB880B582B000AF78600B46FB707B68FA7811461846FEF796FA7B6818460837BD4680BD000080B582B0AA
S32D00010FE000AF786039607B68012B08D13B684FF6FF72934203D120210348FFF7DDFF00BF0837BD4680BD00BF7D
S32D00011008341A002080B500AF4FF6FF710120FFF7E1FF80BD80B483B000AF78607B6800221A707B6818460C377D
S32D00011030BD4680BC7047000080B483B000AF78603960044A3B68136000BF0C37BD4680BC704700BF381A002087
S32D0001105880B582B000AF3248FCF708FA0346FB71304AFB791370304B01221A702F4B1B78022B33D0022B4FDC01
S32D00011080002B02D0012B14D04AE0FB79FF2B44D1284B01221A70284B00221A70264B1B785A1CD1B2244A11702C
S32D000110A81946244AFB79535433E0214B1B785A1CD1B21F4A117019461E4AFB7953541C4B1B780D2B27D11C4BC9
S32D000110D01B68194A1278114618489847154B02221A701CE0FB79FF2B10D1124B01221A70114B00221A70104BF5
S32D000110F81B785A1CD1B20E4A117019460D4AFB79535409E00A4B00221A70084B00221A7002E000BF00E000BF6A
S32D0001112000BF0837BD4680BD00A006404F1A00204E1A00204D1A00204C1A00203C1A0020381A002080B582B00F
S32D0001114800AF78607B681846FFF764FF7B6811491846FFF76DFF7B684FF0FF325A600E4B4FF000021A600D4BE1
S32D000111704FF000021A600C4B4FF000021A600B4B00221A600A4B00221A700A4B00221A707B6818460837BD460C
S32D0001119880BD00BFB91101005C1A0020601A0020641A0020681A00206C1A00206D1A002080B582B000AF7860B6
S32D000111C00B46FB701D4B1B78002B32D07B6801331B781A067B6802331B781B041A437B6803331B781B0213430C
S32D000111E87A680432127813431A46134B1A607B685A79124B1A707B6806331B78AA2B0CBF01230023DAB20E4B90
S32D000112101A700E4B01221A700B4B1B78002B08D00B4800F049F80B4B1B680A4A23F40053136000BF0837BD46A4
S32D0001123880BD00BF581A0020681A00206C1A00206D1A00206E1A0020701A0020C0F00F4080B582B000AF7860CB
S32D0001126039607B68012B07D13B684FF6FF72934202D10348FFF766FF00BF0837BD4680BD501A002080B500AF8C
S32D000112884FF6FF710120FFF7E3FF80BD80B483B000AF7860054B00221A60044B00225A607B6818460C37BD46C0
S32D000112B080BC7047701A002080B584B000AF7860154B1B68002B21D00023FB60124B5B68FA689A4214DA114A5E
S32D000112D8FB6852F82330002B0AD00E4AFB6852F823301846FCF709FB03461A460A4B1A70FB680133FB60E5E7EF
S32D00011300054B00225A60044B00221A60044B1B7818461037BD4680BD701A00207C1A0020781A002080B582B067
S32D0001132800AF786039607B68012B07D13B684FF6FF72934202D10348FFF7A8FF00BF0837BD4680BD701A0020BE
S32D0001135080B500AF4FF6FF710120FFF7E3FF80BD80B483B000AF78600A4B03F580531B6B084A43F0010302F58B
S32D0001137880521363064B5B68054A43F03203536000BF0C37BD4680BC704700BF0070044000000A400346084634
S32D000113A0194608F0BFBF00BF00F03AB8012838BF012010B50446204609F03AFA00B110BD00F0CAF908B1804714
S32D000113C8F5E7042000F09CF8024B034A0349036000F06CF9FC110200F1130100D811020000487047C8110200FB
S32D000113F010B5034B0360044600F0C2F8204610BDFC11020010B5054B0360044600F0B8F820460421FFF7C8FF78
S32D00011418204610BDFC11020009F00EBA20494B6830B5A0F108046BB350F8085C04EB050E734527D821D05A68CE
S32D0001144001F1040C32B90FE0516803F1040C21B313460A469645F7D304BFDEE900215960DCF8003008BFAD18CE
S32D000114681A6899188C4211D05B6840F8043CDCF8003040F8085C5C6030BD1A685B682A4440F8082C40F8043C58
S32D000114904C6030BD2A441A6030BD5B681A6899188C42E5D1F6E700BFE41A0020154900F108034868082B38BF57
S32D000114B80823A0B1073323F00703043102E0011D4068C8B102689342F9D810B4D41A072C06D84368026010BC30
S32D000114E00B60083070477047C218D0F804C0C2F804C0C450086810BC036008300A607047704700BFE41A002048
S32D0001150810B500F18004204609F08EF9034630B180220021184609F0E1FD803010BD2046FFF7C0FF0346002869
S32D00011530F2D100F049F800BF064A93688038984205D9D2681344984201D2FFF76BBF09F077B900BFE41A0020BA
S32D0001155838B5084C4FF41E652846E56009F064F9A06020B10023C0E90053606038BDE060606038BDE41A00209C
S32D00011580704700BF704700BF004870470812020010B504210446FFF707FF204610BD00BF08B5804708F0B6FEE3
S32D000115A806F0C6FB08F0B2FE0C46054606F0FEFB013402D1284606F049FB06F04FFA00BF08B5034B1868BFF33E
S32D000115D05B8FFFF7E5FF00BF240D002008B58047FFF7F2FF08B5034B1868BFF35B8FFFF7F5FF00BF200D002090
S32D000115F8024B1868BFF35B8F704700BF240D0020024B1868BFF35B8F704700BF200D0020012810B51AD8BFF3D6
S32D000116205B8FA1F1280353E8002F013A43E800200028F8D1BFF35B8F5AB951F81C3C01F158040BB12046984774
S32D000116482046BDE81040FFF773BF10BD51F8140CFFF7A2FF38B5002540E91E1240F8805C0446FFF7CDFF44F85C
S32D00011670700CFFF7C1FF43222B23472104F8552C04F8542C04F8533C04F8523C4E22552304F8581C04F8515CEF
S32D00011698054904F8572C04F8563C44F86C0C44F8501CA4F1800038BD1916010070B504460D46164606F0C4FB5F
S32D000116C0436801333246294643602046FFF7C6FF0446012344F8283B204608F013FC204606F02AFBFFF770FF11
S32D000116E810B506F0ADFBD0E900420132426064B194F82020472A0AD0002202602034204608F020FC204606F0C6
S32D0001171013FBFFF759FF94F821204E2AF0D194F82220552AECD194F82320432AE8D194F82420432AE4D194F8CB
S32D0001173825202B2AE0D194F826202B2ADCD194F82720012AD8D8626952426261D6E700BF024B1868BFF35B8FAE
S32D00011760704700BFF41A002010B5034B0360044600F048F9204610BDF812020010B5054B0360044600F03EF99D
S32D0001178820460C21FFF70CFE204610BDF812020070B582B00446069E96420D4609D0A06804680696246A29460A
S32D000117B0A44602B0BDE87040604719460192009300F064F8DDE900320028ECD0062002B070BD00BF2DE9F04FAC
S32D000117D80D4681B01946DDE90A7ADDE90C981C460646934600F04EF880B94F4527D0B06823460468CDE90C9883
S32D00011800CDE90A7AE4695A462946A44601B0BDE8F04F6047002DC8F8007088F804B00CDB3D44A9450CBF4FF00C
S32D0001182806094FF0010988F80690002001B0BDE8F08F0235F9D1012388F80630F5E75146304600F01FF800283B
S32D00011850D1D088F805B0ECE72DE9F04106460F4614461D4600F008F948B9B068016822468C692B463946A44671
S32D00011878BDE8F0416047BDE8F08100BF704700BF00207047814211D008B5406803782A2B0AD049680B782A2B66
S32D000118A008BF013109F030FFB0FA80F0400908BD002008BD0120704770B53B4B1A7882B0002A41D101241C70B7
S32D000118C806F0E4FD002831D04468364D23782A2B08BF013400224FF0FF30114601AB0190204606F047F82B6884
S32D000118F03022DB68064601212D4808F05DFF019B93B12B682046D96808F082FD2B682948DB680222012108F0E7
S32D000119184FFF019B13B9304608F08EFFFFF7E0FE2B683046D96808F06FFDEBE71D4B20481B682D22DB6821464F
S32D0001194008F03AFF08F0E6FC184B1C481B681D22DB68012108F030FF08F0DCFC01290C4619D106F0E9F90368DF
S32D000119689B6898472B682146DB6804460B22124808F01EFF2B682046D96808F045FD2B680A20D96808F0D0FC15
S32D0001199006F010FAD6E706F0CFF906F00BFAD1E706F008FA06F05EF8F81A0020280D0020541302008813020029
S32D000119B88C13020034130200BC13020070B5036884B000249E690394102315460293CDE900446B461268B04780
S32D000119E09DF8043003F00603062B03BF009B2B600120204604B070BD0098904214BF01200620704710B5034B44
S32D00011A0803600446FFF73AFF204610BD0014020010B5054B03600446FFF730FF20460821FFF7BEFC204610BD31
S32D00011A30001402002DE9F041069F0899099E8F42044690461D460CD029462046FFF71EFF20B10123376086F81B
S32D00011A580480B3710020BDE8F0810799FFF712FF0028EDD086F805800020BDE8F08100BF38B515461C46FFF75D
S32D00011A8005FF00B938BD082206232560E260237138BD00BF2DE9F041064617461D460C46FFF7F4FE48B9032D65
S32D00011AA807D823683A46314620465B69BDE8F0411847BDE8F08100BF70B54C1E84464F2C42D8DFE804F0282881
S32D00011AD02828414141413F3F283F3F3F3F3F3F3F3F3F3F3F3F412A2A2A2A2A2A2A2A283F3F3F3F3F413F2A2932
S32D00011AF82841282A2A3F2941413F3F3F28282828283F28283F2841413F3F3F4141413F3F3F282A282A2ABAB17D
S32D00011B20B3B1DCE90540844212DADCF8105004EB840E05EB8E0001340026C0E90166CCF8144005F82E10C0E9DC
S32D00011B48032370BD002AE8D1002070BDF0B5C26811786E29864625D03039CBB2092B2BD80026164D00206FF016
S32D00011B70004402E0B0EBD30F15DC0132CEF80C201378303B5FFA83FC00EB800001EB4000BCF1090F1946A4EB75
S32D00011B980303A5FB0373E9D906B14042F0BD4FF0FF30F0BD531CC36051783039CAB2092A02D81A460126D4E7B0
S32D00011BC00020F0BDCDCCCCCC10B5044629B9C3681A786AB15A1CC260197868290CD0762906D12046FFF7B6FF12
S32D00011BE8E3681A785F2A01D0002010BD0133E3602046FFF7ABFFE3681A785F2AF4D10133E360012010BD00BFDE
S32D00011C1010B4C3680A46197852290DD04F2902D0104610BC7047C46A03342021C4620133C36010BC002343E71E
S32D00011C38C46A02341F21C462F5E700BF002965D070B506460C46A368012B38DCD6F81C51B5F5806F03F10103E0
S32D00011C6031DC2278A360531E4F2B2CD8DFE803F03030304B2B2B2C2C3030303030303030303030303030302B7E
S32D00011C8830303030303030303030414130302B303030302830303030302B2C30303030303030303030303030A1
S32D00011CB02B2B30282828282B3030303030303030E468002CC3D170BD2469002CBFD1FAE7E16801353046C6F81E
S32D00011CD81C51FFF7B3FF21693046FFF7AFFFD6F81C31013BC6F81C3170BDE1680B78052BEBD1D6F83831013372
S32D00011D00C6F83831E5E7D6F84431E1680133C6F84431DEE7704700BFC3681A785F2A01D00120704710B55A1C69
S32D00011D28C2605A785F2A044604D0FFF70FFFC043C00F10BD0233C360FFF708FF002809DB092805DDE3681A78FD
S32D00011D505F2A03D10133E360012010BD002010BD28B909E0002908DD0069013940B103782F2BF7D000207047D6
S32D00011D787047FBD1C0687047704700BFF0B514465268A5684B1C1344AB4283B00E46074611D8E5686DB96368F8
S32D00011DA0206832461844394609F086F8D4E9003233449D5463683344636003B0F0BDE268002AFAD155B16D0054
S32D00011DC8AB42FCD82068294609F020FA38B12060A560DEE7022B4FF00205F0D8F2E70190206808F029FD019B07
S32D00011DF00122C4E90033C4E90232DEE70378722B07D0562B05D04B2B03D0442B03D000207047012070474078E4
S32D00011E1800F0DF034F2BF8D0773801288CBF002001207047D0F80031FF2B70B504460D4606D05A1CC4F800215E
S32D00011E40E55484F8045170BD0026194680F8FF60D0E942329847D4F8283101221344C4F828313346C4F80021CA
S32D00011E68E55484F8045170BD0346D0F8100190B1CB684268002B10690BDB20B909E03BB10069013B30B102789C
S32D00011E902F2AF8D000207047C068704770470122C3F81821704700BF002942D038B505460C4623784C2B32D827
S32D00011EB8DFE803F02F31313131272F37373131313131313131313131313131312F313131313131313131313161
S32D00011EE03131312F313131312F31313131312F37313131313131313131313131312F2F3131312F2F2F31312F37
S32D00011F082F0021462846FFF7AFFF10B103782F2B00D0002038BDE1682846FFF7C1FF0028F8D12469002CC0D1DF
S32D00011F30F3E70020704700BF2DE9F041044608460D4609F05DFD40B3013DD4F800112F184FF0000809E00B46B7
S32D00011F58BD4201F10101C4F80011E65484F8046117D0FF2915F8016FF1D1D4E9423284F8FF8020469847D4F8F4
S32D00011F80283101210B44C4F828310023BD42C4F80011E65484F80461E7D1BDE8F08100BF38B5C3681A78542A94
S32D00011FA824D15A1CC2605A785F2A044620D06E2A1CD0FFF7CBFD421C18D4E36819785F2914D10133E360D4E9DF
S32D00011FD005318B420EDA216903EB830C01EB8C0001330025C0E901556361052301F82C30C26038BD002038BDB3
S32D00011FF80233C3600022E6E72DE9F04188B00A4604461A4901A809F051FB01A809F0F4FC40B301ADD4F80011F9
S32D000120202F184FF0000809E00B46AF4201F10101C4F80011E65484F8046117D0FF2915F8016BF1D1D4E9423281
S32D0001204884F8FF8020469847D4F8283101210B44C4F828310023AF42C4F80011E65484F80461E7D108B0BDE86D
S32D00012070F08100BF2414020070B50446FFF76AFD051E46DDE66863689B1B9D423EDCA26873195207E36004D5F2
S32D00012098725D242A04BF0133E360092D22DD2A490822304608F0D0FE30B9337A2E2B2ED05F2B2CD0242B2AD0F8
S32D000120C0D4E90532934221DA206903EB830200EB820001330022C0E90122636100230370C0E90133C0E903655A
S32D000120E8A06270BDD4E9053293420BDA206903EB830200EB820001330022C0E901226361002EE7D10020A06295
S32D0001211070BD002070BD737A4E2BD1D1E26A6369A1691632551B8B42E562EFDA226903EB8300810001336361F2
S32D0001213802EB80000023C0E901335354034A1523C0E90323DFE700BF28140200341402002DE9F041C3681A78FF
S32D00012160532A31D15A1CC2605A780446A2B39A1CC2605A785F2A44D0A2F13003D8B2092826D800210DE0303B89
S32D0001218899421DD8E06802781946451C1AB1E56002785F2A3BD0A2F13003D8B2092801EBC103A2F1410C02EBBA
S32D000121B08303E8D9BCF1190F06D801EBC10302EB8303373B9942E1D900252846BDE8F081A2F141001928D4D971
S32D000121D8A36803F00803002B14BF0125002500D1B9B93F4B742103F1A80001E013F81C1F914215D08342F9D11A
S32D00012200E2E70023226A9A42DED9E26952F823502846BDE8F0810133F4E7E3681B78433B012B98BF0D46E0E710
S32D000122285E69002E54D0D4E905208242D3F8188053DA276902EB820C07EB8C014FF0000EC1E901EE01324FF056
S32D00012250180E626107F82CE0C1E90368A162002D37D0D3E90371E36A90420B44E36236DD236902EB820003EB40
S32D00012278800501320026C5E901666261182203F82020C5E90371E3681A78422A99D1A66A0133E3602046FFF754
S32D000122A0EBFE2A4603464C212046FFF709FCE3681A78422A0546EFD0A662002884D0D4E90832934280DAE16958
S32D000122C85A1C41F8230022627BE7D3E90171C6E7D4E90520BFE70025D5E70021BAE700BFC01C02002DE9F8433B
S32D000122F08F18B9424AD20C4605464FF000080CE0D5F80011FF2933D04B1CC5F800316E5485F804610134A74211
S32D0001231838D93B1B032B2678EEDD5F2EECD163785F2BE9D1A378552BE6D1E21C9742E3D9002105E0A6F1370373
S32D00012340BA4203EB011123D0914612F8016BA6F13003D8B20928A6F1410CF1D9BCF1050FA6F16103EAD9052B50
S32D0001236814D8A6F15703E7E7D5E9423285F8FF8028469847D5F8282101231A44C5F828210021BEE7BDE8F8839C
S32D000123905F26B5E74F45FBD95F2EF9D1FF29AFD8CEB2D5F80011FF2907D04B1CC5F800314C466E5485F80461A7
S32D000123B8ACE7D5E9423285F8FF8028469847D5F828310133C5F828310021EAE72DE9F043C26883B00446104640
S32D000123E0FFF70CFD00286ED11178A1F130034A2B64D8DFE813F0B800B800B800B800B800B800B800B800B80027
S32D00012408B8006300630063006300630063006300FD016300CD00430163003D01DF016300630063006300630056
S32D000124303E02B800D101C3016300B5011901F300DB006300630063006300B80063006300630063006300630058
S32D000124589800980098009800980098009800980098009800630098009800980098006300630063009800980049
S32D00012480ED01980098009800980098000123256B2363204601F010FC25630246002343212046FFF70DFB0546A4
S32D000124A8019038B1E3681A7822B15A1CE2601B78452B5BD00025284603B0BDE8F083002201A9204601F050FE26
S32D000124D005460028F2D0E3681B78462B20461ED0FFF778FF28600028E8D003781F3B012B05D8019AC368C2606A
S32D000124F82A6801922B60019D002DDBD0D4E908329342D7DAE1695A1C284641F82350226203B0BDE8F08300F0F9
S32D000125207FFC2860DFE7B1486369613901EB810100EB8101A069834280F28483206903EB8306571C013300EBB0
S32D0001254886050022C5E901226361272300F82630E960E36A4968E7600B44E362ABE7204600F02AFE054601907C
S32D00012570002DA3D0D4E9083293429FDAE16941F82350019D5A1C2846226203B0BDE8F0830132E2602046FFF7BF
S32D000125981DFF0023024625212046FFF78DFA05460190E1E70132E2602046FFF761FDE36801901A78492A054665
S32D000125C000F0D0822046FFF705FF019B024621212046FFF775FA05460190C9E72046FFF7DFFCE668019033780C
S32D000125E8492B0546C0D1636B002B40F0DF8200283FF460AFD4E908218A42BFF65BAFE16941F8220001322262B3
S32D000126103278493A012A05D80136E660204601F07BFE03462A461CE05378A3F13002092A05D95F2B03D0413BE9
S32D00012638192B00F2AE8200212046FFF789FDE36801901A78492A05467FF435AF0133E360204601F05DFE2A46EE
S32D00012660034604212046FFF72BFA054601907FE7204600F0D5FB0546019079E7531CE3605378002B3FF41AAF14
S32D00012688931CE3605378463B302B3FF613AF01A151F823F0A3280100BD240100BD240100BD240100BD24010041
S32D000126B0BD240100BD240100BD240100BD240100BD240100BD240100BD240100BD240100BD2401008D24010057
S32D000126D8BD240100BD240100BD240100BD240100BD240100BD240100BD240100BD240100BD240100BD240100FF
S32D00012700BD240100BD24010043290100BD24010017290100FF290100CF2901009F290100BD2401006F290100F0
S32D00012728312B0100BD240100BD240100BD240100BD240100012B0100BD240100E92A0100BD240100BD240100B6
S32D00012750B92A01008D240100892A01002F2A01000132E2602046FFF735FE0023024623212046FFF7A5F90546BE
S32D000127780190F9E60132E2602046FFF727FE0023024622212046FFF797F905460190EBE60132E2602046FFF7B4
S32D000127A019FE0023024624212046FFF789F905460190DDE60132E2602046FFF70BFE0023024626212046FFF7DE
S32D000127C87BF905460190CFE60132E2602046FFF74FFC0023024628212046FFF76DF905460190C1E6841D020025
S32D000127F0511CE16053785F2B00F0B281303B092B00F2BD810B461D460133E3601A78303A092AF8D9D4E90520B8
S32D000128188242A3EB010CBFF64DAED4F810E002EB82000EEB80068700002001328445C6E9010062617FF73EAE60
S32D00012840C6E901000EF80700C6E9031C6A7819465F2A7FF433AE0131E1602046FFF7BAFD324603462A212046C8
S32D00012868FFF72AF9054601907EE60132E2602046FFF7ACFD054600283FF41CAE2046FFF7A5FD034600283FF45C
S32D0001289015AE2A462B212046FFF712F90546019066E6D4E905318B4280F2D081216903EB830001EB80050133E8
S32D000128B80026C5E9016663612C23019501F820309378303BDBB2092B94BF012333462B8203D82046FFF73AF986
S32D000128E0019D2046FFF776FD019BE860DB68002B3FF4E4AD2046FFF72DF9E268137813B1531CE3601378019D50
S32D00012908A3F17303B3FA83F35B096B82D3E5D4E905329342BFF6CEAD2269BE4903EB8305A8000133636102EBDC
S32D0001293085050023C5E9013313540E23C5E90313BDE5D4E905329342BFF6B8AD2269B44903EB8305A80001332E
